:100000000C94A7020C94CF020C94CF020C94CF0254
:100010000C94CF020C94CF020C94CF020C94CF021C
:100020000C94CF020C94CF020C94CF020C94CF020C
:100030000C94CF020C94CF020C94CF020C94CF02FC
:100040000C94490D0C94CF020C94B90D0C94930DA3
:100050000C94CF020C94CF020C94CF020C94CF02DC
:100060000C94EB0D0C94CF025363616E6E656420AB
:10007000504943432773205549443A005359535438
:10008000454D2048414C5445443A20436865636BD4
:1000900020636F6E6E656374696F6E732E005741D7
:1000A000524E494E473A20436F6D6D756E696361DC
:1000B00074696F6E206661696C7572652C20697356
:1000C00020746865204D4652433532322070726F7D
:1000D0007065726C7920636F6E6E65637465643FE2
:1000E000002028756E6B6E6F776E292C70726F62B0
:1000F00061626C792061206368696E657365206355
:100100006C6F6E653F00203D2076322E3000203D22
:100110002076312E30004D46524335323220536F17
:100120006674776172652056657273696F6E3A20E6
:1001300030780057616974696E6720504943437392
:1001400020746F206265207363616E6E6564004584
:10015000766572797468696E67206973207265616B
:100160006479002D2D2D2D2D2D2D2D2D2D2D2D2D69
:100170002D2D2D2D2D2D0041444D494E20436172D2
:1001800064277320554944002D2D2D2D2D2D2D2D07
:100190002D2D2D2D2D2D2D2D2D2D2D0041444D4955
:1001A0004E204361726420446566696E6564005345
:1001B00063616E2041205049434320746F204465A1
:1001C00066696E652061732041444D494E2043614C
:1001D0007264004E6F2041444D494E204361726469
:1001E00020446566696E6564005375636365736674
:1001F000756C6C792072656D6F766564204944205A
:100200007265636F72642066726F6D20454550524F
:100210004F4D004661696C656421205468657265C4
:1002200020697320736F6D657468696E67207772DB
:100230006F6E672077697468204944206F7220626E
:10024000616420454550524F4D005375636365739B
:1002500066756C6C79206164646564204944207221
:1002600065636F726420746F20454550524F4D0096
:100270004661696C65642120546865726520697304
:1002800020736F6D657468696E672077726F6E6733
:100290002077697468204944206F7220626164206D
:1002A000454550524F4D00596F75207368616C6C15
:1002B000206E6F7420706173730057656C636F6D8F
:1002C000652C20596F75207368616C6C20706173A8
:1002D00073002D2D2D2D2D2D2D2D2D2D2D2D2D2D35
:1002E0002D2D2D2D2D2D2D2D2D2D2D2D2D2D2D006B
:1002F0005363616E2041444D494E20436172642036
:10030000616761696E20746F20457869742050724E
:100310006F6772616D204D6F6465005363616E207D
:1003200061205049434320746F20414444206F7240
:100330002052454D4F564520746F20454550524F31
:100340004D00207265636F7264287329206F6E20E0
:10035000454550524F4D0049206861766520004860
:10036000656C6C6F2041444D494E202D20456E74C4
:10037000657265642050726F6772616D204D6F64A5
:1003800065005363616E2061205049434320746FC0
:1003900020414444206F722052454D4F56452074F1
:1003A0006F20454550524F4D002D2D2D2D2D2D2DBB
:1003B0002D2D2D2D2D2D2D2D2D2D2D2D2D2D2D2D6D
:1003C0002D2D2D2D2D2D004920646F206E6F742052
:1003D0006B6E6F77207468697320504943432C20FB
:1003E000616464696E672E2E2E005363616E206116
:1003F000205049434320746F20414444206F7220B1
:1004000052454D4F564520746F20454550524F4D33
:100410000049206B6E6F77207468697320504943E0
:10042000432C2072656D6F76696E672E2E2E002D1F
:100430002D2D2D2D2D2D2D2D2D2D2D2D2D2D2D2DEC
:100440002D2D2D2D2D2D2D2D2D2D2D2D004578696A
:1004500074696E672050726F6772616D204D6F64B2
:10046000650041444D494E204361726420536361ED
:100470006E6E656400506F776572204379436C65DA
:10048000204E65656465642100416C6C2043617297
:100490006473204572617365642066726F6D2064B9
:1004A00065766963650041444D494E20436172643D
:1004B0002045726173652043616E63656C6C656491
:1004C00000596F7520686176652033207365636F0E
:1004D0006E647320746F2043616E63656C005769AE
:1004E000706520427574746F6E2050726573736509
:1004F000640000000000240027002A000000000023
:10050000250028002B000000000023002600290001
:1005100004040404040404040202020202020303A9
:1005200003030303010204081020408001020408B1
:100530001020010204081020000000080002010041
:100540000003040700000000000000000A0F11244F
:100550001FBECFEFD8E0DEBFCDBF13E0A0E0B1E01B
:10056000ECEDF1E302C005900D92A033B107D9F78D
:1005700024E0A0E3B3E001C01D92AC3DB207E1F777
:1005800012E0C7EAD2E004C02197FE010E940E16D5
:10059000C63AD107C9F70E945C0F0C94EC180C9472
:1005A00000008CBD9DBD0895282F809112048823E2
:1005B00019F081E08093160480911604A2E1B4E062
:1005C000E22FF92F9F012C5F3F4F4D9191914913DD
:1005D00080E0E217F307C9F780931604089583308B
:1005E00081F028F4813099F08230A9F008958730A5
:1005F000A9F08830C9F08430B1F4809180008F7DFB
:1006000003C0809180008F7780938000089584B527
:100610008F7784BD089584B58F7DFBCF8091B00026
:100620008F778093B00008958091B0008F7DF9CFCF
:10063000CF93DF93282F30E0F901E85CFA4F8491E3
:10064000F901EC5DFA4FD491F901E05FFA4FC491E2
:10065000CC23A1F081110E94EF02EC2FF0E0EE0F0D
:10066000FF1FEA5FFA4FA591B491EC91ED2381E071
:1006700090E009F480E0DF91CF91089580E090E070
:10068000FACF1F93CF93DF93282F30E0F901E85C76
:10069000FA4F8491F901EC5DFA4FD491F901E05FD2
:1006A000FA4FC491CC23A9F0162F81110E94EF02BA
:1006B000EC2FF0E0EE0FFF1FE450FB4FA591B4913B
:1006C0008FB7F894EC91111108C0D095DE23DC931C
:1006D0008FBFDF91CF911F910895DE2BF8CFCF937D
:1006E000DF9390E0FC01EC5DFA4F2491805F9A4F1C
:1006F000FC0184918823C9F090E0880F991FFC01C8
:10070000EE50FB4FA591B491FC01E450FB4FC59115
:10071000D49161110DC09FB7F8948C9120958223DC
:100720008C938881282328839FBFDF91CF910895E0
:10073000623051F49FB7F8943C91822F80958323C7
:100740008C93E8812E2BEFCF8FB7F894EC912E2B62
:100750002C938FBFEACF3FB7F89480910A04909111
:100760000B04A0910C04B0910D0426B5A89B05C004
:100770002F3F19F00196A11DB11D3FBFBA2FA92F20
:10078000982F8827BC01CD01620F711D811D911D1D
:1007900042E0660F771F881F991F4A95D1F7089589
:1007A0008F929F92AF92BF92CF92DF92EF92FF9281
:1007B0006B017C010E94AB034B015C01C114D104AD
:1007C000E104F104B9F00E94AB03681979098A09C0
:1007D0009B09683E73408105910580F321E0C21AB0
:1007E000D108E108F10888EE880E83E0981EA11C6C
:1007F000B11CE4CFFF90EF90DF90CF90BF90AF900F
:100800009F908F90089508950895AF92BF92CF92D0
:10081000DF92EF92FF920F931F93CF93DF936C01C0
:100820007B018B01040F151FEB015E01AE18BF08A1
:10083000C017D10759F06991D601ED91FC91019053
:10084000F081E02DC6010995892B79F7C501DF916B
:10085000CF911F910F91FF90EF90DF90CF90BF90BD
:10086000AF900895FC01538D448D252F30E0842FE7
:1008700090E0821B930B541710F0CF9608950197C8
:100880000895FC01918D828D981761F0A28DAE0FB5
:10089000BF2FB11D5D968C91928D9F5F9F73928F3C
:1008A00090E008958FEF9FEF0895FC01918D828D68
:1008B000981731F0828DE80FF11D858D90E0089535
:1008C0008FEF9FEF0895FC01918D228D892F90E08D
:1008D000805C9F4F821B91098F739927089587E150
:1008E00094E00E94630421E0892B09F420E0822F28
:1008F000089580E090E0892B29F00E946F04811117
:100900000C9400000895FC01A48DA80FB92FB11D0F
:10091000A35ABF4F2C91848D90E001968F73992735
:10092000848FA689B7892C93A089B1898C91837013
:1009300080648C93938D848D981306C00288F3890C
:10094000E02D80818F7D80830895EF92FF920F9339
:100950001F93CF93DF93EC0181E0888F9B8D8C8D6B
:1009600098131AC0E889F989808185FF15C09FB75F
:10097000F894EE89FF896083E889F9898081837022
:10098000806480839FBF81E090E0DF91CF911F91D1
:100990000F91FF90EF900895F62E0B8D10E00F5FF2
:1009A0001F4F0F731127E02E8C8D8E110CC00FB6C8
:1009B00007FCFACFE889F989808185FFF5CFCE0160
:1009C0000E948304F1CFEB8DEC0FFD2FF11DE35A54
:1009D000FF4FF0829FB7F8940B8FEA89FB898081E3
:1009E0008062CFCF0F931F93CF93DF938C01D0E022
:1009F000C0E0F801EC0FFD1F6491662341F087E130
:100A000094E00E94A504892B11F02196F2CFCE012B
:100A1000DF91CF911F910F910895CF93DF93EC0158
:100A2000888D8823B9F0AA89BB89E889F9898C91D6
:100A300085FD03C0808186FD0DC00FB607FCF7CF92
:100A40008C9185FFF2CF808185FFEDCFCE010E9492
:100A50008304E9CFDF91CF91089508952091710328
:100A6000260F3327331F21323105ECF42091BA03CE
:100A7000FC0190E080E0243069F082E00895A091CC
:100A800071032191AC014F5A5C4FA40FB52FB11DDA
:100A90002C930196861798F380917103680F6093E9
:100AA000710380E0089581E008951092BA0381E017
:100AB0008093B9031092940361E082E10E944103A4
:100AC00061E083E10E944103E9EBF0E080818E7FE9
:100AD000808380818D7F808388E48093B80085E463
:100AE0008093BC000895CF93DF9391E090935003DF
:100AF0008823B9F0C091B800D091BA008091BC00B1
:100B00008A7B8093BC0060E082E10E94410360E048
:100B100083E10E9441030E945505D093BA00C0931F
:100B2000B800DF91CF9108950895E091E903809195
:100B3000E803E81730F4F0E0E05DFC4F808190E0DE
:100B400008958FEF9FEF08959091E9038091E80356
:100B50002FEF3FEF981748F4E92FF0E0E05DFC4FEE
:100B6000208130E09F5F9093E903C901089580914F
:100B7000E8039091E903891B990B0895CF92DF92C6
:100B8000EF92FF920F931F93CF93DF937C01CB01E2
:100B90008A012091C003222389F0EB016B01C40E6E
:100BA000D51ECC15DD0569F06991D701ED91FC9159
:100BB0000190F081E02DC7010995F3CF642F0E94C9
:100BC0002E05C801DF91CF911F910F91FF90EF90FB
:100BD000DF90CF900895CF93DF931F92CDB7DEB70C
:100BE00069832091C0032223F9F02091E60320328B
:100BF00058F021E030E0FC013383228390E080E074
:100C00000F90DF91CF9108958091E703E82FF0E0F6
:100C1000EF53FC4F998190838F5F8093E70380931C
:100C2000E60381E090E0ECCF61E0CE0101960E9406
:100C30002E05F7CFCF92DF92EF92FF920F931F9383
:100C4000CF93DF93FC01C48121E02093C003C093C4
:100C5000E1031092E7031092E6038385682B84EB8F
:100C600094E00E94EB05D091E603D13208F092C0E7
:100C70000E94AB036B017C018091BA03811165C0B6
:100C800082E08093BA0381E08093B9038FEF809371
:100C9000B8031092B703D093B603A1ECB3E0E6E932
:100CA000F3E080E0D81385C01092950380919503FE
:100CB000CC0FC82BC093950380919403813009F029
:100CC0007CC0109294030E94AB036B017C01809165
:100CD00095038093BB008091BC039091BD03A091CC
:100CE000BE03B091BF03892B8A2B8B2B99F00E94F6
:100CF000AB030091BC031091BD032091BE03309162
:100D0000BF036C197D098E099F090617170728076D
:100D10003907E0F18091BC0083FDD9CF85EC809349
:100D2000BC000E94AB036B017C018091BA0382304E
:100D300009F445C08091B8038F3F61F18091B803F9
:100D4000803241F18091B80325C08091BC0390911D
:100D5000BD03A091BE03B091BF03892B8A2B8B2BBF
:100D600009F48ACF0E94AB030091BC031091BD032C
:100D70002091BE033091BF036C197D098E099F0934
:100D8000061717072807390708F076CF8091BB03AD
:100D90000E9473051092E7031092E6031092C003BD
:100DA000DF91CF911F910F91FF90EF90DF90CF9047
:100DB00008959D9191938F5F75CF85EEB0CF80910F
:100DC000BC039091BD03A091BE03B091BF03892BDA
:100DD0008A2B8B2B09F4A9CF0E94AB030091BC0393
:100DE0001091BD032091BE033091BF036C197D09A2
:100DF0008E099F09061717072807390708F095CFAE
:100E0000C5CF88E08093CB0460E080EC94E00C9444
:100E10001A061092CB0460E080EC94E00C941A0661
:100E200090E080E00895BC016E5F7F4FDC01ED91A2
:100E3000FC910190F081E02D40E0099591E0811155
:100E400090E0892F089508958EBD00000DB407FE2F
:100E5000FDCF8EB50895DF92EF92FF920F931F930F
:100E6000CF93DF937C01062FD42E152F83E590E0DE
:100E70000E94D10260E0F70186850E94410382E171
:100E80000E942407CD2DD12F0C0F1D2F111DC0172F
:100E9000D10721F089910E942407F9CF61E0F70181
:100EA0008685DF91CF911F910F91FF90EF90DF909A
:100EB0000C9441031F93CF93DF93EC01162F83E52E
:100EC00090E00E94D10260E08E850E944103812F54
:100ED00080680E94240780E00E942407182F61E0A8
:100EE0008E850E944103812FDF91CF911F9108953C
:100EF0000F931F93CF93DF93EC01062F142F83E5FD
:100F000090E00E94D10260E08E850E944103802F14
:100F10000E942407812F0E94240761E08E85DF91C3
:100F2000CF911F910F910C944103CF92DF92EF92DA
:100F3000FF920F931F93CF93DF93EC016B01142F5C
:100F4000790140E062E00E94780744E06AE0CE0167
:100F50000E94780740E864E1CE010E947807A6016C
:100F6000612FCE010E942B0743E062E0CE010E9478
:100F7000780708E813E16AE0CE010E945A0782FF71
:100F80001BC040E062E0CE010E94780764E4CE011D
:100F90000E945A07F701808362E4CE010E945A073B
:100FA000F701818380E0DF91CF911F910F91FF9036
:100FB000EF90DF90CF90089501501109E1F683E0A2
:100FC000F2CF3F924F925F926F927F928F929F9259
:100FD000AF92BF92CF92DF92EF92FF920F931F9347
:100FE000CF93DF9300D0CDB7DEB74C012B01D42EC9
:100FF000390180E0E114F10411F0F7018081BC2C8B
:10100000B29490EFB922B80E40E062E0C4010E94B1
:1010100078074FE768E0C4010E94780740E864E180
:10102000C4010E947807A2016D2DC4010E942B0704
:101030004B2D6AE1C4010E9478074CE062E0C401D4
:101040000E9478076AE1C4010E945A07482F40684D
:101050006AE1C4010E94780720ED422E27E0522E5B
:1010600068E0C4010E945A07982F907309F0B6C037
:1010700080FD04C0F1E04F1A510891F783E094C05D
:101080006114710409F46DC00115110509F469C0FA
:1010900064E1C4010E945A07B82EF80180818B15C3
:1010A00008F496C0B082BB20E1F183E590E00E9495
:1010B000D10260E0F40186850E944103BA9482E97E
:1010C0000E942407CC20B1F08FEF90E09C0102C079
:1010D000220F331FCA94E2F7690182E90E942407B4
:1010E0009C2D9095F301208192238C21982B908345
:1010F000CC24C39423014C0C511CCB1440F482E942
:101100000E942407F20181932F01C394F6CF80E05F
:101110000E942407F201808361E0F40186850E9429
:10112000410368E1C4010E945A078770E114F10489
:1011300011F0F701808333FC4DC06114710409F490
:101140004BC00115110509F447C0AA2009F444C099
:10115000F8014081413039F4843009F049C08FEF03
:1011600023C080E0E8CF423008F442C0811140C083
:1011700042509E012F5F3F4FB301C4010E9495076B
:10118000811112C0F8019081690E711CF301329730
:101190002081998129132CC0F1E06F1A7108F301A5
:1011A00020819A81291324C00F900F90DF91CF9155
:1011B0001F910F91FF90EF90DF90CF90BF90AF9075
:1011C0009F908F907F906F905F904F903F90089589
:1011D00084E0EACF82E0E8CF80E0E6CF6CE0C401B3
:1011E0000E945A07382E837109F44ACF81E0DCCF80
:1011F00087E0DACF0F931F93CF93DF938C01D62F25
:10120000C42F0E945A07C0954C2F48236D2FC80148
:10121000DF91CF911F910F910C9478078F929F923D
:10122000AF92CF92EF92FF920F931F93CF93DF93E2
:1012300000D000D01F92CDB7DEB74C0182E08D8385
:1012400040E064E2C4010E94780740E066E2C40125
:101250000E94780746E268E4C4010E94780786E2AB
:101260008B838D818230B0F140E86CE1C4010E9433
:10127000FA0887E08C83A12CC12CCE0104967C0156
:101280008E010B5F1F4F9E012F5F3F4F41E0BE015C
:101290006D5F7F4FC4010E94E107982F811117C035
:1012A0008D818230B9F48C81811114C081E00F905E
:1012B0000F900F900F900F90DF91CF911F910F9192
:1012C000FF90EF90CF90AF909F908F90089581E026
:1012D000923069F380E0EBCF2F923F924F925F9272
:1012E0006F927F928F929F92AF92BF92CF92DF9236
:1012F000EF92FF920F931F93CF93DF93CDB7DEB79B
:101300002D970FB6F894DEBF0FBECDBF16E0413566
:1013100008F042C1342E4B013C0140E86CE10E94D0
:10132000FA0883E98983332029F081E0F401908170
:10133000953008F480E022242394B12C9B2D990F42
:10134000990F990FD32CD91AD7FCD12C32E08823CE
:1013500019F098E89B8333E021E09D2D977009F404
:1013600020E09D2D959595959595290FC9F094E0D0
:10137000811193E0291708F4922FEB2DF0E03196BC
:10138000E80DF91D232F4191A1E0B0E0AC0FBD1F86
:10139000A20FB11D4C932F5F422F431B491798F3A7
:1013A000882311F0F8E0DF0E2FE12D150CF07FC03F
:1013B00030E73A838B819C8189279D8189279E8193
:1013C00089278F839E01285F3F4F47E0BE016F5FF3
:1013D0007F4FC3010E949507182F8111DDC01A8627
:1013E00083E08B87DC86FE0137962F01F9E0FD87CD
:1013F000CA844C2D4295407F4C0D6AE1C3010E9486
:101400007807A12CCE010A967C018E01055F1F4F43
:1014100092014D85BE016F5F7F4FC3010E94E107BE
:10142000182F823009F062C06CE1C3010E945A0794
:1014300085FDB2C0282F2F7109F420E2822F90E0A1
:101440004D2DDD0C550B481759070CF099C0D22EC5
:10145000019787709927E22FE595E595E595EF5F70
:1014600021E0811101C020E0E20F21E030E02C0FEB
:101470003D1F2E0F311DF90121E030E001C0220F88
:101480008A95EAF78081822B80838ECF85E98983D4
:10149000332031F081E0F4019081983008F04ECF94
:1014A00080E04CCF87E9898326E0B22EF9CF9D2DCD
:1014B00097709A878D2D8595859585958E5F282FB8
:1014C0002295207F290F2A8321E0911101C020E07D
:1014D000280F2D8744244394512C4C0E5D1E480E3A
:1014E000511C29E0281B2B87DC8682CF811154C038
:1014F00080E2D82E3C8530320CF45ACF8B8188386C
:1015000009F040C083E093E0EB2DF0E03196E80D68
:10151000F91D980FA1E0B0E0AC0FBD1FA80FB11DE1
:101520002C9121938F5F8913F5CFBB8483E0B81290
:101530004DC08A8581114AC09E012D5F3F4F41E019
:10154000B201C3010E949507182F811125C09B810C
:10155000F201818198133CC09C818281981338C02C
:10156000808182FF12C02394F2E02F1609F48ECFFF
:1015700023E0221609F496CF31E0231609F4D1CEE8
:1015800015E00AC082E094E0BFCFF4018387822D8A
:10159000880F820D8F5F8083812F2D960FB6F89470
:1015A000DEBF0FBECDBFDF91CF911F910F91FF9096
:1015B000EF90DF90CF90BF90AF909F908F907F90F3
:1015C0006F905F904F903F902F90089511E0E4CF7F
:1015D00017E0E2CFFB0101900020E9F73197AF015E
:1015E000461B570BDC01ED91FC910280F381E02D4D
:1015F0000994CF93DF930E94F204EC016AE471E056
:1016000087E194E00E94EA0A8C0F9D1FDF91CF9141
:1016100008954F925F926F927F92EF92FF920F9395
:101620001F93CF93DF93CDB7DEB7A1970FB6F89492
:10163000DEBF0FBECDBF7C0170E090E080E019A25C
:101640008E010F5D1F4F2A01550F66087708A30111
:1016500092010E94EC15E62FCA01B901EA300CF59F
:10166000E05DD801EE938D01232B242B252B79F7F8
:1016700090E080E0109721F0C701BD010E94EA0AC6
:10168000A1960FB6F894DEBF0FBECDBFDF91CF910C
:101690001F910F91FF90EF907F906F905F904F9010
:1016A0000895E95CDECFCF93DF93BC0187E194E03E
:1016B0000E94EA0AEC016AE471E087E194E00E948A
:1016C000EA0A8C0F9D1FDF91CF910895AF92CF92C0
:1016D000EF92FF920F931F93CF93DF9300D000D030
:1016E000CDB7DEB78CEC94E00E940E0981110EC0DC
:1016F00080E00F900F900F900F90DF91CF911F918E
:101700000F91FF90EF90CF90AF9008958CEC94E004
:101710000E941307882361F388E690E00E94F90A8B
:101720008091CF04809312049091D004909313047D
:101730002091D104209314043091D20430931504E5
:101740001F923F931F922F931F929F931F928F93ED
:101750008DE491E09F938F9389EF93E09F938F9314
:101760000E94141689EF93E00E94530B80E5898351
:101770001A829E012D5F3F4F42E0BE016F5F7F4F97
:101780008CEC94E00E9495070FB6F894DEBF0FBE74
:10179000CDBF811110C0A12CC12CF12CE12C10E087
:1017A00000E030E020E044E0BE016F5F7F4F8CEC52
:1017B00094E00E94E10781E09CCFBC0180EC94E0C2
:1017C0000C94EA0A0F931F93CF938C01C62F0E94AB
:1017D0001A066C2F6460C8010E941A066C2F6B7F7A
:1017E000C8010E941A0683EC90E00197F1F7CF91AF
:1017F0001F910F9108950F931F93CF93DF938C0147
:10180000D62FC42F607F642B0E94E20B80E1D89F0B
:10181000B00111246C2BC801DF91CF911F910F9162
:101820000C94E20BCF93DF93CDB7DEB728970FB6BA
:10183000F894DEBF0FBECDBF98E0E8E0F1E0DE0136
:10184000119601900D929A95E1F79091C804961720
:1018500010F46FEF690F262F30E0220F331F41E0A5
:1018600050E04C0F5D1F240F351FF9016081680F98
:10187000606840E080EC94E028960FB6F894DEBFF4
:101880000FBECDBFDF91CF910C94FB0B40E061E028
:1018900080EC94E00E94FB0B8BE39FE10197F1F752
:1018A000089541E00E94FB0B81E090E0089585EDF2
:1018B0008093BC008091BC039091BD03A091BE03B6
:1018C000B091BF030796A11DB11D23E0B695A79562
:1018D000979587952A95D1F72091BC0024FD03C0E8
:1018E0001092BA0308954091BC035091BD036091DA
:1018F000BE037091BF03452B462B472B69F300971E
:10190000A105B10541F02AE22A95F1F700C001973F
:10191000A109B109E1CF8091BB030C9473050C942C
:10192000DE150C94D6150F931F93CF93DF93880F7A
:10193000880F8E5F0EE014E0C82FD0E0CE50D44068
:10194000CE01800F911F0E94910CF80181938F01AD
:10195000F4E002311F07A1F7DF91CF911F910F91A2
:101960000895CF93DF9390E080E00E94910CD82FF0
:10197000C1E0DC1758F08C2F0E94930C8EE094E0AD
:101980000E94D402811103C0CF5FF3CF80E0DF91CA
:10199000CF9108950F931F93CF93DF9361E082E07F
:1019A0000E9441036AE070E080E090E00E94D00372
:1019B00060E082E00E9441030E94460C60E080E00B
:1019C0000E94120C81E691E00E94DD0B61E083E051
:1019D0000E94120C86E791E00E94DD0B81E090E00E
:1019E0000E94910C05EF13E0C2E0D0E08F38A1F027
:1019F00062E080E00E94120C85E891E00E94DD0B1D
:101A000063E080E00E94120C87E991E0DF91CF91C2
:101A10001F910F910C94DD0BCE010E94910CF801E7
:101A200081938F0140E150E0682F87E194E00E94AC
:101A3000090B2196C630D10579F763E080E00E945A
:101A4000120C8BEA91E00E94DD0B40E150E06091C6
:101A5000F50380EC94E00E94090B40E150E06091B6
:101A6000F60380EC94E00E94090B40E150E06091A5
:101A7000F70380EC94E00E94090B40E150E0609194
:101A8000F80380EC94E0DF91CF911F910F910C94BB
:101A9000090B1F920F920FB60F9211242F933F93B1
:101AA0008F939F93AF93BF93809106049091070407
:101AB000A0910804B09109043091050423E0230F9C
:101AC0002D3758F50196A11DB11D20930504809373
:101AD000060490930704A0930804B093090480912E
:101AE0000A0490910B04A0910C04B0910D0401968E
:101AF000A11DB11D80930A0490930B04A0930C04C4
:101B0000B0930D04BF91AF919F918F913F912F9111
:101B10000F900FBE0F901F90189526E8230F029686
:101B2000A11DB11DD2CF1F920F920FB60F9211249B
:101B30002F933F934F935F936F937F938F939F93D5
:101B4000AF93BF93EF93FF9387E194E00E948304E8
:101B5000FF91EF91BF91AF919F918F917F916F9185
:101B60005F914F913F912F910F900FBE0F901F905B
:101B700018951F920F920FB60F9211242F938F93E7
:101B80009F93EF93FF93E0912704F09128048081C5
:101B9000E0912D04F0912E0482FD1BC09081809174
:101BA00030048F5F8F7320913104821741F0E091F0
:101BB0003004F0E0E95EFB4F958F80933004FF9195
:101BC000EF919F918F912F910F900FBE0F901F90CB
:101BD00018958081F4CF1F920F920FB60F921124A7
:101BE0002F933F934F935F936F937F938F939F9325
:101BF000AF93BF93EF93FF938091B900887F8036B6
:101C000009F44AC0F0F5883209F4A7C018F580310C
:101C100009F49BC0B8F4882309F4F9C0883009F4AA
:101C200094C0FF91EF91BF91AF919F918F917F9160
:101C30006F915F914F913F912F910F900FBE0F9039
:101C40001F901895883109F488C0803251F780932D
:101C5000B80314C0803409F49DC040F48033B9F354
:101C60008833F9F68093B80385ECB0C0803509F469
:101C700085C0883509F496C0883499F60E94570CBF
:101C8000D0CF883909F48CC038F5883729F050F462
:101C9000883611F0803729F683E08093BA031092DA
:101CA000930357C0883809F47BC0803919F0803815
:101CB00009F0B7CF80919303803208F071C0E091B2
:101CC000930381E08E0F809393038091BB00F0E03B
:101CD000ED58FC4F80833DC0803B39F0E0F4803A02
:101CE00009F479C0883A09F09CCF84E08093BA0364
:101CF0001092720310927103E091E403F091E503F6
:101D000009958091710381110FC081E08093710367
:101D10001092510309C0803C09F4A6CF883C09F415
:101D2000A3CF883B09F07DCFE091720381E08E0F55
:101D300080937203F0E0EF5AFC4F80818093BB00E8
:101D4000909172038091710329C0809195038093D3
:101D5000BB0085EC8093BC0064CF9091B703809169
:101D6000B603981758F5E091B70381E08E0F809382
:101D7000B703F0E0EA56FC4F8081E9CFE091B7036A
:101D800081E08E0F8093B7038091BB00F0E0EA56AC
:101D9000FC4F80839091B7038091B6039817C8F2E7
:101DA00085E8D8CFE091B70381E08E0F8093B70329
:101DB0008091BB00F0E0EA56FC4F80838091B9032C
:101DC00081115CCF81E08093940384EA8093BC000E
:101DD0001092BA0326CF85EC8093BC001092BA0310
:101DE00080919303803230F4E0919303F0E0ED585A
:101DF000FC4F10826091930370E0E091E203F09158
:101E0000E30383E793E00995109293030ACF1092BE
:101E1000B80334CFE7E1F4E01382128288EE93E056
:101E2000A0E0B0E084839583A683B78324E131E00A
:101E30003183208325EC30E03587248724EC30E0A3
:101E40003787268720EC30E0318B208B21EC30E087
:101E5000338B228B22EC30E0358B248B26EC30E068
:101E6000378B268B118E128E138E148EE4EBF4E0DA
:101E70001382128284839583A683B78386E291E0DE
:101E800091838083ECECF4E084E491E0918380839F
:101E90008AE0868789E08787E0ECF4E0138212828B
:101EA00088E391E09183808387E2848384E1818762
:101EB00084E0828713860895789484B5826084BD17
:101EC00084B5816084BD85B5826085BD85B581603E
:101ED00085BD80916E00816080936E0010928100BC
:101EE0008091810082608093810080918100816077
:101EF0008093810080918000816080938000809138
:101F0000B10084608093B1008091B00081608093C3
:101F1000B00080917A00846080937A0080917A008A
:101F2000826080937A0080917A00816080937A0049
:101F300080917A00806880937A001092C1000E949C
:101F400001071092E9031092E8031092E703109240
:101F5000E6030E94550583E094E09093E5038093A7
:101F6000E40384E094E09093E3038093E20310920F
:101F7000C5048091CA04823018F098E09093C5049B
:101F80008093C80462E370E080E090E00E94D00398
:101F90006091CB0480EC94E00E941A0668EE73E036
:101FA00080E090E00E94D00360E380EC94E00E9427
:101FB000E20BCBE4D6E4CE010197F1F760E380ECCD
:101FC00094E00E94E20B2197F1F760E380EC94E04B
:101FD0000E94E20B83E592E00197F1F760E280EC6A
:101FE00094E00E94E20B6091C504606240E080ECE6
:101FF00094E00E94FB0B84E08093C60440E06CE018
:1020000080EC94E00E94FB0B0E94460C82E08093DF
:10201000C70440E066E080EC94E00E94FB0B40E0E7
:1020200062E080EC94E00E94FB0B8BE39FE1019760
:10203000F1F740E060E480EC94E00E94FB0BC0E02C
:10204000D1E0699180EC94E00E94510C21E0C8300D
:10205000D207B9F7E0912704F091280482E0808349
:10206000E0912304F09124041082E0912504F09182
:10207000260480E1808310922F04E0912B04F091DC
:102080002C0486E08083E0912904F0912A04808169
:1020900080618083E0912904F0912A048081886026
:1020A0008083E0912904F0912A04808180688083F4
:1020B000E0912904F0912A0480818F7D808362E081
:1020C00088E00E946F0361E085E00E946F0360E09A
:1020D00085E00E94410361E082E00E946F03CFB778
:1020E000F8948091EA03811127C0EAE1F5E0849138
:1020F000EEE2F5E09491E82FF0E0EE0FFF1FEE50D6
:10210000FB4FA591B491EC91E92321F461E08AE0C1
:102110000E94410361E08AE00E946F038CB58061F8
:102120008CBD8CB580648CBD61E08DE00E946F0336
:1021300061E08BE00E946F038091EA038F5F8093E0
:10214000EA03CFBF61E08091DA040E946F0361E08F
:102150008091DA040E9441038091DB048F3F09F4EF
:10216000A7C060E00E946F038091DB040E94180307
:10217000892B09F09DC061E08091DB040E946F0310
:1021800061E08091DB040E94410362E370E080E043
:1021900090E00E94D00340E064E28CEC94E00E9466
:1021A000780740E066E28CEC94E00E94780746E213
:1021B00068E48CEC94E00E94780740E864E58CECDD
:1021C00094E00E94780749EA66E58CEC94E00E946E
:1021D000780743E068E58CEC94E00E94780748EECD
:1021E0006AE58CEC94E00E94780740E46AE28CECAB
:1021F00094E00E9478074DE362E28CEC94E00E9448
:10220000780768E28CEC94E00E945A07982F93704C
:10221000933039F0482F436068E28CEC94E00E94E0
:1022200078076CE48CEC94E00E945A078077803742
:1022300091F040E76CE48CEC94E00E94FA086CE4C6
:102240008CEC94E00E945A07482F40676CE48CECB9
:1022500094E00E9478076EE68CEC94E00E945A07A6
:10226000C82F86E191E00E94F20440E150E06C2F1B
:1022700087E194E00E94090B8EE091E0C13931F0D2
:1022800086E091E0C23911F081EE90E00E94F20404
:102290008CE491E00E94530BC150CE3FE8F08EE9F0
:1022A00090E00E94F90A8CE790E00E94F90AFFCFC3
:1022B0004FE062E08CEC94E00E94780762E370E00B
:1022C00080E090E00E94D00362E08CEC94E00E94F9
:1022D0005A0784FDF9CF5FCF0E94CA0C81E090E0DD
:1022E0000E94910C8F3809F441C083ED91E00E9467
:1022F000F90A8FEA91E00E94F90A0E94660B809326
:1023000004048823D1F302E114E0C2E0D0E0F80134
:1023100061918F01CE010E948F0C2196C630D105AC
:10232000B1F76FE881E090E00E948F0C0E94460CAC
:1023300061E081E00E94120C87EB91E00E94DD0BCE
:1023400063E080E00E94120C8AEC91E00E94DD0BB9
:1023500089EF93E00E94DD0B8CE991E00E94F90A7D
:1023600068E873E180E090E00E94D0030E94CA0C0C
:1023700088E891E00E94F90A87E791E00E94F90A53
:1023800005EF13E0C2E0D0E0CE010E94910CF8010D
:1023900081938F012196C630D105B1F78091F80362
:1023A0001F928F938091F7031F928F938091F60372
:1023B0001F928F938091F5031F928F938DE491E08C
:1023C0009F938F938BEE93E09F938F930E941416AD
:1023D0008BEE93E00E94530B8CE491E00E94530B30
:1023E00083E691E00E94F90A8FE491E00E94F90AE5
:1023F00083E391E00E94F90A8DB79EB70C960FB661
:10240000F8949EBF0FBE8DBF24EF822E9924939423
:10241000A12CB12C30E0632E30E0732E0E94660BAD
:102420008093040488E00E941803892B09F08CC073
:1024300061E082E00E9441036AE070E080E090E0A9
:102440000E94D00360E082E00E9441030E94460C9B
:1024500060E080E00E94120C84ED91E00E94DD0BB0
:1024600061E080E00E94120C88EE91E00E94DD0B9A
:102470008EED94E00E94F90A81EC94E00E94F90A42
:102480008FB7F89420900604309007044090080419
:10249000509009048FBF2FB7F89480910604909153
:1024A0000704A0910804B09109042FBF8219930971
:1024B000A409B509883B9B40A105B10508F02FC3CD
:1024C0002FB7F89460910604709107048091080476
:1024D000909109042FBFA50194010E94EC15672B70
:1024E000682B692BC1F688E00E941803892B99F2AA
:1024F00061E082E00E9441036AE070E080E090E0E9
:102500000E94D00360E082E00E9441030E94460CDA
:1025100060E080E00E94120C8BEF91E00E94DD0BE6
:1025200061E080E00E94120C80E192E00E94DD0BED
:1025300086EA94E00E94F90A64EC79E080E090E099
:102540000E94D0030E94CA0C80910404882309F4DD
:1025500065CF80910304882309F491C185EF93E04E
:102560000E94D402882309F43FC061E082E00E9407
:1025700041036AE070E080E090E00E94D00360E0F8
:1025800082E00E9441030E94460C60E080E00E94CD
:10259000120C85E492E00E94DD0B62E080E00E9474
:1025A000120C88E592E00E94DD0B63E080E00E945F
:1025B000120C80E692E00E94DD0B82E694E00E941D
:1025C000F90A8DE494E00E94F90A8FE294E00E94F7
:1025D000F90A1092030464EC79E080E090E00E9434
:1025E000D0030E94CA0C67C00E94B10C61E088232E
:1025F00009F4C0C082E00E9441036AE070E080E01C
:1026000090E00E94D00360E082E00E9441030E94BB
:10261000460C60E080E00E94120C8AEC91E00E947F
:10262000DD0B89EF93E00E94DD0B61E080E00E940A
:10263000120C81E792E00E94DD0B63E080E00E94D3
:10264000120C81E892E00E94DD0B64EC79E080E0FE
:1026500090E00E94D0030E94460C60E080E00E945F
:10266000120C85E992E00E94DD0B61E080E00E949F
:10267000120C87EA92E00E94DD0B63E080E00E948A
:10268000120C81E892E00E94DD0B81E194E00E944F
:10269000F90A0E94B10C81111AC083E192E00E94F4
:1026A000F90A5D2C8AEB92E00E94530B8AEE93E0CC
:1026B0000E94F90AD52C6114710409F4AFCE0E946E
:1026C0006F04882309F4AACE0E940000A7CE90E0F0
:1026D00080E00E94910CD82F55245394D51558F0C2
:1026E000852D0E94930C8EE094E00E94D40281110B
:1026F00003C05394F3CF5D2CC52DCC0FCC0F92E0CB
:10270000F92EFC0ECD2FC5194C2E440C440C6FEF46
:102710006D0F90E080E00E948F0C10E000E0CF2D64
:10272000D0E06E0124E0C20ED11C7801EC0EFD1E3B
:10273000041560F4C601800F911F0E94910C682F50
:10274000C7010E948F0C0F5F1F4FEFCFC40DD11D2B
:1027500010E000E060E0CE01800F911F0E948F0C1E
:102760000F5F1F4F04301105A9F789EE91E00E9419
:10277000F90A98CF82E00E9441036AE070E080E0AD
:1027800090E00E94D00360E082E00E9441030E943A
:10279000460C60E080E00E94120C8AEC91E00E94FE
:1027A000DD0B89EF93E00E94DD0B61E080E00E9489
:1027B000120C88ED92E00E94DD0B63E080E00E9445
:1027C000120C81E892E00E94DD0B64EC79E080E07D
:1027D00090E00E94D0030E94460C60E080E00E94DE
:1027E000120C85E992E00E94DD0B61E080E00E941E
:1027F000120C87EA92E00E94DD0B63E080E00E9409
:10280000120C81E892E00E94DD0B87EC93E00E94BD
:10281000F90A0E94B10C81112FC090E080E00E9463
:10282000910CC82FCC0FCC0FCA5F61E0680F90E00D
:1028300080E00E948F0C82E1E82E84E0F82E10E008
:1028400000E0D0E0F70161917F01CE01800F911F80
:102850000E948F0C0F5F1F4F0430110599F78AE417
:1028600092E00E94F90A89EA93E00E94F90A82E85C
:1028700093E00E94F90A1FCF80E792E0F2CF85EF44
:1028800093E00E94D40281116AC00E94B10C882397
:1028900009F4B7C00E94460C8091120460E08830B1
:1028A00009F022C183E00E94120C86E093E00E94AE
:1028B000DD0B61E080E00E94120CC4E1D0E060E03A
:1028C00080EC94E00E94510C2197C9F762E080E00F
:1028D0000E94120C85E193E00E94DD0B63E080E032
:1028E0000E94120C89EF93E00E94DD0B8AEB92E0CC
:1028F0000E94F90A61E085E00E9441030E940907F5
:1029000061E082E00E9441036EE170E080E090E0CF
:102910000E94D0030E94010766ED71E080E090E024
:102920000E94D00360E082E00E94410364E971E10B
:1029300080E090E00E94D00360E085E00E944103C7
:1029400061E082E00E94410364EF71E080E090E08A
:102950000E94D00360E082E00E9441033CCE81E00F
:102960008093030461E082E00E9441036AE070E02A
:1029700080E090E00E94D00360E082E00E9441038A
:102980000E94460C60E080E00E94120C85E492E018
:102990000E94DD0B61E080E00E94120C86EE92E066
:1029A0000E94DD0B63E080E00E94120C81E892E05F
:1029B0000E94DD0B8FE593E00E94F90A90E080E031
:1029C0000E94910CC82F87E593E00E94F2044AE030
:1029D00050E06C2F87E194E00E94090B82E493E0C1
:1029E0000E94F2048CE491E00E94530B8BE193E08F
:1029F0000E94F90A80EF92E00E94F90A82ED92E0CB
:102A000038CF80911204883009F444CF0E94460CDC
:102A100060E083E00E94120C88EF92E00E94DD0BE0
:102A200061E080E00E94120CC4E1D0E060E080EC44
:102A300094E00E94510C2197C9F762E080E00E9467
:102A4000120C87E293E00E94DD0B63E080E00E94BD
:102A5000120C89EF93E00E94DD0B87EA92E00E945E
:102A6000F90A60E085E00E9441030E94090761E0E5
:102A700082E00E9441036EE170E080E090E00E94FD
:102A8000D0030E94010760E082E00E94410364E6F7
:102A900070E080E090E00E94D0030E94090761E0AE
:102AA00082E00E9441036EE170E080E090E00E94CD
:102AB000D0030E94010760E082E00E94410364E6C7
:102AC00070E080E090E00E94D0030E94090761E07E
:102AD00082E00E9441036EE170E080E090E00E949D
:102AE000D0030E94010736CF83E00E94120C86E0DB
:102AF00093E00E94DD0B61E080E00E94120CC4E1D3
:102B0000D0E060E080EC94E00E94510C2197C9F77E
:102B100062E080E00E94120C87E293E0DDCE88E064
:102B20000E941803892B09F0E3CC61E082E00E9447
:102B30004103D0E0C0E0CE010E94910C882321F037
:102B400060E0CE010E948F0C2196C115F4E0DF07F2
:102B500091F761E082E00E9441036AE070E080E06A
:102B600090E00E94D00360E082E00E9441030E9456
:102B7000460C60E080E00E94120C80E292E00E942D
:102B8000DD0B63E080E00E94120C81E392E00E9482
:102B9000DD0B89E894E00E94F90A85E794E00E9441
:102BA000F90A60E082E00E944103FFCFF999FECF6D
:102BB00092BD81BDF89A992780B50895262FF9997D
:102BC000FECF1FBA92BD81BD20BD0FB6F894FA9A10
:102BD000F99A0FBE01960895A1E21A2EAA1BBB1BFB
:102BE000FD010DC0AA1FBB1FEE1FFF1FA217B307D9
:102BF000E407F50720F0A21BB30BE40BF50B661FEF
:102C0000771F881F991F1A9469F7609570958095B2
:102C100090959B01AC01BD01CF010895EE0FFF1F00
:102C20000590F491E02D0994AEE0B0E0EAE1F6E120
:102C30000C94C3180D891E8986E08C831A8309833E
:102C40008FEF9FE79E838D83AE01475E5F4F6F8955
:102C5000788DCE0101960E9437162F813885020F9C
:102C6000131FF80110822E96E4E00C94DF18ABE0FD
:102C7000B0E0EDE3F6E10C94B5187C013B018A016C
:102C8000FC0117821682838181FFC8C1CE010196A3
:102C90005C01F7019381F30193FD859193FF81918D
:102CA0003F01882309F453C1853239F493FD85919E
:102CB00093FF81913F01853229F4B70190E00E9492
:102CC0002718E7CF912C212C312CFFE1F31538F098
:102CD0008B3211F190F4803209F1833229F137FC03
:102CE0003CC020ED280F2A3050F536FE20C08AE087
:102CF000989E200D1124922E06C08D3291F08033C3
:102D000071F7689430F8F30193FD859193FF8191F9
:102D10003F018111DACF21C0689431F8689432F80C
:102D2000F2CF689433F8EFCF689434F8ECCFEAE050
:102D30002E9E200D1124222E689435F8E4CF8E3279
:102D400029F436FC04C1689436F8DDCF8C3619F4CA
:102D5000689437F8D8CF8836B1F2982F9F7D955474
:102D60009330E0F08336A1F18337C1F1833509F068
:102D700063C02801F2E04F0E511CF801C080D180E1
:102D8000692D70E036FC02C06FEF7FEFC6010E9434
:102D900011184C01689437F882010AC00C5F1F4F6C
:102DA000FFE3F98388248394912C6501E89437F834
:102DB00033FE2DC0522C8114910471F5552009F475
:102DC00068CFB70180E290E00E9427185A94F6CFAE
:102DD000F801808189830E5F1F4FE4CF2801F2E064
:102DE0004F0E511CF801C080D180692D70E036FC77
:102DF00002C06FEF7FEFC6010E941C184C018201D8
:102E0000D5CFB70180E290E00E9427182A942814B9
:102E1000190409F0B0F7CECFF60137FC859137FEE3
:102E200081916F01B70190E00E94271851105A94C8
:102E3000F1E08F1A9108BFCF843619F0893609F076
:102E400077C0F80137FE6BC0608171818281938108
:102E50000C5F1F4FF32DFF763F2E97FF09C0909513
:102E60008095709561957F4F8F4F9F4F689437F88D
:102E70002AE030E0A5010E945718C82ECA188C2CF1
:102E8000432C36FE0CC0E89440F8C91440F434FEDC
:102E900005C032FC03C0F32DFE7E4F2E892C44FE6C
:102EA00095C0FE01EC0DF11D8081803309F087C0D3
:102EB000242D297E422E842D8870582E43FC95C0E7
:102EC00040FE8FC09C2C821418F42C0C922C981865
:102ED00044FE91C0B70180E390E00E94271842FEB3
:102EE00009C088E790E041FE02C088E590E0B701A4
:102EF0000E942718C91408F48AC0CA94D12C9FEFE5
:102F0000C91AD90ACA0CDB1CF60182916F01B701FC
:102F100090E00E942718AC14BD04B1F74FCF608138
:102F20007181072E000C880B990B0E5F1F4F92CFFB
:102F3000D32CE894D4F82AE030E0853739F1232DFA
:102F4000297FD22E8F3601F148F48835A9F0F70198
:102F5000868197812B96E2E10C94D118803749F055
:102F60008837A9F7D4FE02C06894D2F820E130E097
:102F70000DC06894D4F8F6CF34FE03C0822F86606B
:102F8000D82E20E132E002C028E030E0F801D7FE80
:102F90000FC060817181828193810C5F1F4FA501F9
:102FA0000E945718C82ECA183D2CE89437F867CFEE
:102FB0006081718190E080E00E5F1F4FF0CF42FC96
:102FC00002C0839478CF8394839475CF842D8678C0
:102FD00009F471CFF6CFB70180E290E00E94271884
:102FE00083948214C0F3512C73CF522C581882143E
:102FF00008F46ECFF8CF842D867809F47BCF8BE26E
:1030000041FE80E247FC8DE2B70190E071CFB7014D
:1030100080E390E00E9427189A946CCF8FEF9FEF87
:1030200099CFFC010590615070400110D8F7809550
:1030300090958E0F9F1F0895FC0161507040019084
:103040000110D8F7809590958E0F9F1F08950F93CC
:103050001F93CF93DF93182F092FEB018B8181FDF5
:1030600009C01FEF0FEF812F902FDF91CF911F919C
:103070000F91089582FF14C02E813F818C819D8124
:10308000281739073CF4E881F981CF01019699832B
:10309000888310838E819F8101969F838E83E3CFE7
:1030A000E885F985812F0995892BA1F3DACFFA01FB
:1030B000AA27283051F1203181F1E8946F936E7F77
:1030C0006E5F7F4F8F4F9F4FAF4FB1E03ED0B4E068
:1030D0003CD0670F781F891F9A1FA11D680F791FA9
:1030E0008A1F911DA11D6A0F711D811D911DA11DBA
:1030F00020D009F468943F912AE0269F11243019CA
:10310000305D3193DEF6CF010895462F4770405D64
:103110004193B3E00FD0C9F7F6CF462F4F70405D13
:103120004A3318F0495D31FD4052419302D0A9F76E
:10313000EACFB4E0A6959795879577956795BA9568
:10314000C9F700976105710508959B01AC010A2E2E
:1031500006945795479537952795BA95C9F7620F05
:10316000731F841F951FA01D08952F923F924F92A9
:103170005F926F927F928F929F92AF92BF92CF9207
:10318000DF92EF92FF920F931F93CF93DF93CDB710
:10319000DEB7CA1BDB0B0FB6F894DEBF0FBECDBF88
:1031A00009942A88398848885F846E847D848C8459
:1031B0009B84AA84B984C884DF80EE80FD800C8162
:1031C0001B81AA81B981CE0FD11D0FB6F894DEBF45
:0C31D0000FBECDBFED010895F894FFCFB5
:1031DC001F0000000000000000004000140054001C
:1031EC0000000000A504050432040D05630441042D
:1031FC00550400000000EB05BE0510079405B7054B
:10320C00A405950500000000510C050410072D05C0
:10321C00000000006C090E0913070D0A002530325E
:10322C00583A253032583A253032583A25303258EF
:10323C000031332E35364D487A20524649442041D0
:10324C00434345535300434F4E54524F4C20535914
:10325C005354454D004E4F2041444D494E2054414E
:10326C00472053455421005357495045204E45574C
:10327C002041444D494E205441470041444D494E54
:10328C00205549443A200041444D494E2054414771
:10329C0020444546494E4544210054414720554958
:1032AC00443A20005749504520425554544F4E2023
:1032BC005052455353454400484F4C4420464F52BE
:1032CC002033205345434F4E44530057495045201B
:1032DC00425554544F4E2052454C454153454400A1
:1032EC00574950452043414E43454C4C45442100E1
:1032FC00414C4C20544147532045524153454421A5
:10330C0000504F574552204359434C45204E45459C
:10331C00444544210041444D494E205441472044EA
:10332C00455445435445440045584954494E47007B
:10333C0050524F4752414D204D4F4445202E2E2E7A
:10334C00004F4C44205441472052454D4F56454464
:10335C000050524F4752414D204D4F444520414360
:10336C005449564500535749504520414E4F5448F7
:10337C00455220544147004F522053574950452045
:10338C0041444D494E20544147002D2D2D2D2D2DBE
:10339C002D2D2D2D2D2D2D2D2D2D2D2D2D2D2D2D51
:1033AC002D2D2D2D2D2D2D004E45572054414720D0
:1033BC004144444544005343414E204E45572F4F02
:1033CC004C442054414753004143434553532044FC
:1033DC00454E4945440041434345535320475241D0
:1033EC004E5445440050484F4E45204445564943A1
:1033FC0045205549443A00544147205549443A0028
:00000001FF
