:100000000C945D000C9485000C9485000C94850084
:100010000C9485000C9485000C9485000C9485004C
:100020000C9485000C9485000C9485000C9485003C
:100030000C9485000C9485000C9485000C9485002C
:100040000C944D010C9485000C9485000C94850053
:100050000C9485000C9485000C9485000C9485000C
:100060000C9485000C94850000000008000201003B
:100070000003040700000000000000000000000072
:10008000250028002B0000000000240027002A0083
:10009000040404040404040402020202020203032E
:1000A0000303030301020408102040800102040836
:1000B00010200102040810205F0211241FBECFEFA0
:1000C000D8E0DEBFCDBF11E0A0E0B1E0E8E5F5E0AB
:1000D00002C005900D92A231B107D9F721E0A2E14B
:1000E000B1E001C01D92AB32B207E1F710E0CDE5FF
:1000F000D0E004C02197FE010E94A402CC35D107B4
:10010000C9F70E9497010C94AA020C94000090E099
:10011000FC01EC55FF4F249180579F4FFC018491C7
:10012000882399F090E0880F991FFC01EA57FF4F50
:10013000A591B491FC01E458FF4F859194918FB73C
:10014000F894EC91E22BEC938FBF089590E0FC01C2
:10015000E859FF4F2491FC01EC55FF4F3491FC010D
:10016000E057FF4FE491EE23C9F0222339F023300A
:1001700001F1A8F4213019F1223029F1F0E0EE0F5D
:10018000FF1FE458FF4FA591B4918FB7F894EC91FD
:10019000611126C030953E233C938FBF08952730D0
:1001A000A9F02830C9F0243049F7809180008F7D74
:1001B00003C0809180008F7780938000DFCF84B56B
:1001C0008F7784BDDBCF84B58F7DFBCF8091B0006E
:1001D0008F778093B000D2CF8091B0008F7DF9CF20
:1001E0003E2BDACF3FB7F894809117019091180118
:1001F000A0911901B0911A0126B5A89B05C02F3F07
:1002000019F00196A11DB11D3FBFBA2FA92F982F3C
:100210008827BC01CD01620F711D811D911D42E037
:10022000660F771F881F991F4A95D1F708958F92FF
:100230009F92AF92BF92CF92DF92EF92FF920E9475
:10024000F2004B015C0184EFC82EDD24D394E12C35
:10025000F12C0E94F200681979098A099B09683E0D
:10026000734081059105A8F321E0C21AD108E10885
:10027000F10888EE880E83E0981EA11CB11CC11401
:10028000D104E104F10429F7FF90EF90DF90CF90C3
:10029000BF90AF909F908F9008951F920F920FB6CE
:1002A0000F9211242F933F938F939F93AF93BF93FC
:1002B0008091130190911401A0911501B091160144
:1002C0003091120123E0230F2D3758F50196A11D1F
:1002D000B11D209312018093130190931401A093F8
:1002E0001501B09316018091170190911801A0910A
:1002F0001901B0911A010196A11DB11D809317013A
:1003000090931801A0931901B0931A01BF91AF9176
:100310009F918F913F912F910F900FBE0F901F9043
:10032000189526E8230F0296A11DB11DD2CFCF93B9
:10033000DF93CDB7DEB761970FB6F894DEBF0FBE7F
:10034000CDBF789484B5826084BD84B5816084BD5E
:1003500085B5826085BD85B5816085BD80916E0063
:10036000816080936E001092810080918100826094
:1003700080938100809181008160809381008091D1
:1003800080008160809380008091B10084608093C0
:10039000B1008091B00081608093B00080917A00BC
:1003A000846080937A0080917A00826080937A00E2
:1003B00080917A00816080937A0080917A008068D1
:1003C00080937A001092C10082E00E94870083E04F
:1003D0000E94870084E00E94870085E00E948700D9
:1003E00086E00E94870087E00E94870088E00E94E4
:1003F000870089E00E94870061E082E00E94A600F9
:1004000061E083E00E94A60061E084E00E94A60013
:1004100061E085E00E94A60061E086E00E94A600FF
:1004200061E087E00E94A60061E088E00E94A600EB
:1004300061E089E00E94A6005E0181E1A80EB11C86
:1004400090E0892E90E0992E8E010F5F1F4F702E45
:10045000612E81E1E0E0F1E0A72DB62D01900D9233
:100460008A95E1F78BE1C82E81E0D82EF12CE12CA2
:10047000F6018081F2E0CF0ED11CF801608170E0BE
:100480000E2C02C0759567950A94E2F761700E9480
:10049000A600FFEFEF1AFF0A88E0E816F10441F723
:1004A0000E9417010F5F1F4F0A151B0591F60E944E
:1004B00017018114910441F20E940000C5CFCF932F
:1004C000DF938AE090E090931C0180931B018BE006
:1004D00090E090931E0180931D018CE090E090933A
:1004E000200180931F018DE090E090932201809382
:1004F00021018EE090E090932401809323018FE00E
:1005000090E0909326018093250180E190E0909304
:1005100028018093270181E190E090932A01809344
:100520002901CBE1D1E0888122960E948700FE015B
:10053000329761E080810E94A60081E0CB32D8072B
:1005400091F7DF91CF910895EE0FFF1F0590F49181
:08055000E02D0994F894FFCF9F
:1005580088EB4C492B1918CB080B0A389C681C1ED1
:020568005D0034
:00000001FF
